{
  "_format": "hh-sol-artifact-1",
  "contractName": "QualityTestContract",
  "sourceName": "contracts/QualityTestContract.sol",
  "abi": [
    {
      "inputs": [],
      "stateMutability": "nonpayable",
      "type": "constructor"
    },
    {
      "inputs": [
        {
          "internalType": "address",
          "name": "sender",
          "type": "address"
        },
        {
          "internalType": "uint256",
          "name": "tokenId",
          "type": "uint256"
        },
        {
          "internalType": "address",
          "name": "owner",
          "type": "address"
        }
      ],
      "name": "ERC721IncorrectOwner",
      "type": "error"
    },
    {
      "inputs": [
        {
          "internalType": "address",
          "name": "operator",
          "type": "address"
        },
        {
          "internalType": "uint256",
          "name": "tokenId",
          "type": "uint256"
        }
      ],
      "name": "ERC721InsufficientApproval",
      "type": "error"
    },
    {
      "inputs": [
        {
          "internalType": "address",
          "name": "approver",
          "type": "address"
        }
      ],
      "name": "ERC721InvalidApprover",
      "type": "error"
    },
    {
      "inputs": [
        {
          "internalType": "address",
          "name": "operator",
          "type": "address"
        }
      ],
      "name": "ERC721InvalidOperator",
      "type": "error"
    },
    {
      "inputs": [
        {
          "internalType": "address",
          "name": "owner",
          "type": "address"
        }
      ],
      "name": "ERC721InvalidOwner",
      "type": "error"
    },
    {
      "inputs": [
        {
          "internalType": "address",
          "name": "receiver",
          "type": "address"
        }
      ],
      "name": "ERC721InvalidReceiver",
      "type": "error"
    },
    {
      "inputs": [
        {
          "internalType": "address",
          "name": "sender",
          "type": "address"
        }
      ],
      "name": "ERC721InvalidSender",
      "type": "error"
    },
    {
      "inputs": [
        {
          "internalType": "uint256",
          "name": "tokenId",
          "type": "uint256"
        }
      ],
      "name": "ERC721NonexistentToken",
      "type": "error"
    },
    {
      "anonymous": false,
      "inputs": [
        {
          "indexed": true,
          "internalType": "address",
          "name": "owner",
          "type": "address"
        },
        {
          "indexed": true,
          "internalType": "address",
          "name": "approved",
          "type": "address"
        },
        {
          "indexed": true,
          "internalType": "uint256",
          "name": "tokenId",
          "type": "uint256"
        }
      ],
      "name": "Approval",
      "type": "event"
    },
    {
      "anonymous": false,
      "inputs": [
        {
          "indexed": true,
          "internalType": "address",
          "name": "owner",
          "type": "address"
        },
        {
          "indexed": true,
          "internalType": "address",
          "name": "operator",
          "type": "address"
        },
        {
          "indexed": false,
          "internalType": "bool",
          "name": "approved",
          "type": "bool"
        }
      ],
      "name": "ApprovalForAll",
      "type": "event"
    },
    {
      "anonymous": false,
      "inputs": [
        {
          "indexed": false,
          "internalType": "string",
          "name": "id",
          "type": "string"
        },
        {
          "indexed": false,
          "internalType": "uint256",
          "name": "tokenId",
          "type": "uint256"
        },
        {
          "indexed": false,
          "internalType": "string",
          "name": "finalResult",
          "type": "string"
        }
      ],
      "name": "QualityTestBatchCreated",
      "type": "event"
    },
    {
      "anonymous": false,
      "inputs": [
        {
          "indexed": true,
          "internalType": "address",
          "name": "from",
          "type": "address"
        },
        {
          "indexed": true,
          "internalType": "address",
          "name": "to",
          "type": "address"
        },
        {
          "indexed": true,
          "internalType": "uint256",
          "name": "tokenId",
          "type": "uint256"
        }
      ],
      "name": "Transfer",
      "type": "event"
    },
    {
      "inputs": [
        {
          "internalType": "address",
          "name": "to",
          "type": "address"
        },
        {
          "internalType": "uint256",
          "name": "tokenId",
          "type": "uint256"
        }
      ],
      "name": "approve",
      "outputs": [],
      "stateMutability": "nonpayable",
      "type": "function"
    },
    {
      "inputs": [
        {
          "internalType": "address",
          "name": "owner",
          "type": "address"
        }
      ],
      "name": "balanceOf",
      "outputs": [
        {
          "internalType": "uint256",
          "name": "",
          "type": "uint256"
        }
      ],
      "stateMutability": "view",
      "type": "function"
    },
    {
      "inputs": [
        {
          "internalType": "uint256",
          "name": "tokenId",
          "type": "uint256"
        }
      ],
      "name": "getApproved",
      "outputs": [
        {
          "internalType": "address",
          "name": "",
          "type": "address"
        }
      ],
      "stateMutability": "view",
      "type": "function"
    },
    {
      "inputs": [
        {
          "internalType": "address",
          "name": "owner",
          "type": "address"
        },
        {
          "internalType": "address",
          "name": "operator",
          "type": "address"
        }
      ],
      "name": "isApprovedForAll",
      "outputs": [
        {
          "internalType": "bool",
          "name": "",
          "type": "bool"
        }
      ],
      "stateMutability": "view",
      "type": "function"
    },
    {
      "inputs": [],
      "name": "name",
      "outputs": [
        {
          "internalType": "string",
          "name": "",
          "type": "string"
        }
      ],
      "stateMutability": "view",
      "type": "function"
    },
    {
      "inputs": [
        {
          "internalType": "uint256",
          "name": "tokenId",
          "type": "uint256"
        }
      ],
      "name": "ownerOf",
      "outputs": [
        {
          "internalType": "address",
          "name": "",
          "type": "address"
        }
      ],
      "stateMutability": "view",
      "type": "function"
    },
    {
      "inputs": [
        {
          "internalType": "string",
          "name": "id",
          "type": "string"
        },
        {
          "internalType": "int256",
          "name": "minLimit",
          "type": "int256"
        },
        {
          "internalType": "int256",
          "name": "maxLimit",
          "type": "int256"
        },
        {
          "internalType": "int256[]",
          "name": "values",
          "type": "int256[]"
        },
        {
          "internalType": "string",
          "name": "productionOrder",
          "type": "string"
        },
        {
          "internalType": "string",
          "name": "testDate",
          "type": "string"
        },
        {
          "internalType": "string",
          "name": "testDescription",
          "type": "string"
        },
        {
          "internalType": "string",
          "name": "imagesJson",
          "type": "string"
        }
      ],
      "name": "performBatchQualityTest",
      "outputs": [],
      "stateMutability": "nonpayable",
      "type": "function"
    },
    {
      "inputs": [
        {
          "internalType": "string",
          "name": "id",
          "type": "string"
        }
      ],
      "name": "queryQualityTestBatch",
      "outputs": [
        {
          "internalType": "string",
          "name": "",
          "type": "string"
        },
        {
          "internalType": "int256",
          "name": "",
          "type": "int256"
        },
        {
          "internalType": "int256",
          "name": "",
          "type": "int256"
        },
        {
          "internalType": "int256[]",
          "name": "",
          "type": "int256[]"
        },
        {
          "internalType": "string",
          "name": "",
          "type": "string"
        },
        {
          "internalType": "string",
          "name": "",
          "type": "string"
        },
        {
          "internalType": "string",
          "name": "",
          "type": "string"
        },
        {
          "components": [
            {
              "internalType": "int256",
              "name": "value",
              "type": "int256"
            },
            {
              "internalType": "string",
              "name": "result",
              "type": "string"
            }
          ],
          "internalType": "struct QualityTestContract.SampleResult[]",
          "name": "",
          "type": "tuple[]"
        },
        {
          "internalType": "string",
          "name": "",
          "type": "string"
        },
        {
          "internalType": "string",
          "name": "",
          "type": "string"
        }
      ],
      "stateMutability": "view",
      "type": "function"
    },
    {
      "inputs": [
        {
          "internalType": "uint256",
          "name": "tokenId",
          "type": "uint256"
        }
      ],
      "name": "queryQualityTestBatchByToken",
      "outputs": [
        {
          "internalType": "string",
          "name": "",
          "type": "string"
        },
        {
          "internalType": "int256",
          "name": "",
          "type": "int256"
        },
        {
          "internalType": "int256",
          "name": "",
          "type": "int256"
        },
        {
          "internalType": "int256[]",
          "name": "",
          "type": "int256[]"
        },
        {
          "internalType": "string",
          "name": "",
          "type": "string"
        },
        {
          "internalType": "string",
          "name": "",
          "type": "string"
        },
        {
          "internalType": "string",
          "name": "",
          "type": "string"
        },
        {
          "components": [
            {
              "internalType": "int256",
              "name": "value",
              "type": "int256"
            },
            {
              "internalType": "string",
              "name": "result",
              "type": "string"
            }
          ],
          "internalType": "struct QualityTestContract.SampleResult[]",
          "name": "",
          "type": "tuple[]"
        },
        {
          "internalType": "string",
          "name": "",
          "type": "string"
        },
        {
          "internalType": "string",
          "name": "",
          "type": "string"
        }
      ],
      "stateMutability": "view",
      "type": "function"
    },
    {
      "inputs": [
        {
          "internalType": "address",
          "name": "from",
          "type": "address"
        },
        {
          "internalType": "address",
          "name": "to",
          "type": "address"
        },
        {
          "internalType": "uint256",
          "name": "tokenId",
          "type": "uint256"
        }
      ],
      "name": "safeTransferFrom",
      "outputs": [],
      "stateMutability": "nonpayable",
      "type": "function"
    },
    {
      "inputs": [
        {
          "internalType": "address",
          "name": "from",
          "type": "address"
        },
        {
          "internalType": "address",
          "name": "to",
          "type": "address"
        },
        {
          "internalType": "uint256",
          "name": "tokenId",
          "type": "uint256"
        },
        {
          "internalType": "bytes",
          "name": "data",
          "type": "bytes"
        }
      ],
      "name": "safeTransferFrom",
      "outputs": [],
      "stateMutability": "nonpayable",
      "type": "function"
    },
    {
      "inputs": [
        {
          "internalType": "address",
          "name": "operator",
          "type": "address"
        },
        {
          "internalType": "bool",
          "name": "approved",
          "type": "bool"
        }
      ],
      "name": "setApprovalForAll",
      "outputs": [],
      "stateMutability": "nonpayable",
      "type": "function"
    },
    {
      "inputs": [
        {
          "internalType": "bytes4",
          "name": "interfaceId",
          "type": "bytes4"
        }
      ],
      "name": "supportsInterface",
      "outputs": [
        {
          "internalType": "bool",
          "name": "",
          "type": "bool"
        }
      ],
      "stateMutability": "view",
      "type": "function"
    },
    {
      "inputs": [],
      "name": "symbol",
      "outputs": [
        {
          "internalType": "string",
          "name": "",
          "type": "string"
        }
      ],
      "stateMutability": "view",
      "type": "function"
    },
    {
      "inputs": [
        {
          "internalType": "uint256",
          "name": "tokenId",
          "type": "uint256"
        }
      ],
      "name": "tokenURI",
      "outputs": [
        {
          "internalType": "string",
          "name": "",
          "type": "string"
        }
      ],
      "stateMutability": "view",
      "type": "function"
    },
    {
      "inputs": [
        {
          "internalType": "address",
          "name": "from",
          "type": "address"
        },
        {
          "internalType": "address",
          "name": "to",
          "type": "address"
        },
        {
          "internalType": "uint256",
          "name": "tokenId",
          "type": "uint256"
        }
      ],
      "name": "transferFrom",
      "outputs": [],
      "stateMutability": "nonpayable",
      "type": "function"
    }
  ],
  "bytecode": "0x60806040523480156200001157600080fd5b506040518060400160405280601381526020017f5175616c6974795465737442617463684e4654000000000000000000000000008152506040518060400160405280600381526020017f515442000000000000000000000000000000000000000000000000000000000081525081600090816200008f919062000324565b508060019081620000a1919062000324565b5050506200040b565b600081519050919050565b7f4e487b7100000000000000000000000000000000000000000000000000000000600052604160045260246000fd5b7f4e487b7100000000000000000000000000000000000000000000000000000000600052602260045260246000fd5b600060028204905060018216806200012c57607f821691505b602082108103620001425762000141620000e4565b5b50919050565b60008190508160005260206000209050919050565b60006020601f8301049050919050565b600082821b905092915050565b600060088302620001ac7fffffffffffffffffffffffffffffffffffffffffffffffffffffffffffffffff826200016d565b620001b886836200016d565b95508019841693508086168417925050509392505050565b6000819050919050565b6000819050919050565b600062000205620001ff620001f984620001d0565b620001da565b620001d0565b9050919050565b6000819050919050565b6200022183620001e4565b6200023962000230826200020c565b8484546200017a565b825550505050565b600090565b6200025062000241565b6200025d81848462000216565b505050565b5b8181101562000285576200027960008262000246565b60018101905062000263565b5050565b601f821115620002d4576200029e8162000148565b620002a9846200015d565b81016020851015620002b9578190505b620002d1620002c8856200015d565b83018262000262565b50505b505050565b600082821c905092915050565b6000620002f960001984600802620002d9565b1980831691505092915050565b6000620003148383620002e6565b9150826002028217905092915050565b6200032f82620000aa565b67ffffffffffffffff8111156200034b576200034a620000b5565b5b62000357825462000113565b6200036482828562000289565b600060209050601f8311600181146200039c576000841562000387578287015190505b62000393858262000306565b86555062000403565b601f198416620003ac8662000148565b60005b82811015620003d657848901518255600182019150602085019450602081019050620003af565b86831015620003f65784890151620003f2601f891682620002e6565b8355505b6001600288020188555050505b505050505050565b61385e806200041b6000396000f3fe608060405234801561001057600080fd5b50600436106101005760003560e01c806370a0823111610097578063b88d4fde11610066578063b88d4fde146102c6578063c11c4e23146102e2578063c87b56dd1461031b578063e985e9c51461034b57610100565b806370a082311461024057806395d89b4114610270578063a22cb4651461028e578063aefa2a1f146102aa57610100565b806323b872dd116100d357806323b872dd1461019f57806342842e0e146101bb5780634c6e3c42146101d75780636352211e1461021057610100565b806301ffc9a71461010557806306fdde0314610135578063081812fc14610153578063095ea7b314610183575b600080fd5b61011f600480360381019061011a91906125d4565b61037b565b60405161012c919061261c565b60405180910390f35b61013d61045d565b60405161014a91906126c7565b60405180910390f35b61016d6004803603810190610168919061271f565b6104ef565b60405161017a919061278d565b60405180910390f35b61019d600480360381019061019891906127d4565b61050b565b005b6101b960048036038101906101b49190612814565b610521565b005b6101d560048036038101906101d09190612814565b610623565b005b6101f160048036038101906101ec919061271f565b610643565b6040516102079a99989796959493929190612a87565b60405180910390f35b61022a6004803603810190610225919061271f565b610b4f565b604051610237919061278d565b60405180910390f35b61025a60048036038101906102559190612b5b565b610b61565b6040516102679190612b97565b60405180910390f35b610278610c1b565b60405161028591906126c7565b60405180910390f35b6102a860048036038101906102a39190612bde565b610cad565b005b6102c460048036038101906102bf9190612e47565b610cc3565b005b6102e060048036038101906102db9190613046565b6110dc565b005b6102fc60048036038101906102f791906130c9565b611101565b6040516103129a99989796959493929190612a87565b60405180910390f35b6103356004803603810190610330919061271f565b611688565b60405161034291906126c7565b60405180910390f35b61036560048036038101906103609190613112565b6116f1565b604051610372919061261c565b60405180910390f35b60007f80ac58cd000000000000000000000000000000000000000000000000000000007bffffffffffffffffffffffffffffffffffffffffffffffffffffffff1916827bffffffffffffffffffffffffffffffffffffffffffffffffffffffff1916148061044657507f5b5e139f000000000000000000000000000000000000000000000000000000007bffffffffffffffffffffffffffffffffffffffffffffffffffffffff1916827bffffffffffffffffffffffffffffffffffffffffffffffffffffffff1916145b80610456575061045582611785565b5b9050919050565b60606000805461046c90613181565b80601f016020809104026020016040519081016040528092919081815260200182805461049890613181565b80156104e55780601f106104ba576101008083540402835291602001916104e5565b820191906000526020600020905b8154815290600101906020018083116104c857829003601f168201915b5050505050905090565b60006104fa826117ef565b5061050482611877565b9050919050565b61051d82826105186118b4565b6118bc565b5050565b600073ffffffffffffffffffffffffffffffffffffffff168273ffffffffffffffffffffffffffffffffffffffff16036105935760006040517f64a0ae9200000000000000000000000000000000000000000000000000000000815260040161058a919061278d565b60405180910390fd5b60006105a783836105a26118b4565b6118ce565b90508373ffffffffffffffffffffffffffffffffffffffff168173ffffffffffffffffffffffffffffffffffffffff161461061d578382826040517f64283d7b000000000000000000000000000000000000000000000000000000008152600401610614939291906131b2565b60405180910390fd5b50505050565b61063e838383604051806020016040528060008152506110dc565b505050565b6060600080606080606080606080606061065c8b6117ef565b506000600760008d815260200190815260200160002090508060000181600101548260020154836003018460040185600501866006018760070188600801896009018980546106aa90613181565b80601f01602080910402602001604051908101604052809291908181526020018280546106d690613181565b80156107235780601f106106f857610100808354040283529160200191610723565b820191906000526020600020905b81548152906001019060200180831161070657829003601f168201915b505050505099508680548060200260200160405190810160405280929190818152602001828054801561077557602002820191906000526020600020905b815481526020019060010190808311610761575b5050505050965085805461078890613181565b80601f01602080910402602001604051908101604052809291908181526020018280546107b490613181565b80156108015780601f106107d657610100808354040283529160200191610801565b820191906000526020600020905b8154815290600101906020018083116107e457829003601f168201915b5050505050955084805461081490613181565b80601f016020809104026020016040519081016040528092919081815260200182805461084090613181565b801561088d5780601f106108625761010080835404028352916020019161088d565b820191906000526020600020905b81548152906001019060200180831161087057829003601f168201915b505050505094508380546108a090613181565b80601f01602080910402602001604051908101604052809291908181526020018280546108cc90613181565b80156109195780601f106108ee57610100808354040283529160200191610919565b820191906000526020600020905b8154815290600101906020018083116108fc57829003601f168201915b5050505050935082805480602002602001604051908101604052809291908181526020016000905b82821015610a0f57838290600052602060002090600202016040518060400160405290816000820154815260200160018201805461097e90613181565b80601f01602080910402602001604051908101604052809291908181526020018280546109aa90613181565b80156109f75780601f106109cc576101008083540402835291602001916109f7565b820191906000526020600020905b8154815290600101906020018083116109da57829003601f168201915b50505050508152505081526020019060010190610941565b505050509250818054610a2190613181565b80601f0160208091040260200160405190810160405280929190818152602001828054610a4d90613181565b8015610a9a5780601f10610a6f57610100808354040283529160200191610a9a565b820191906000526020600020905b815481529060010190602001808311610a7d57829003601f168201915b50505050509150808054610aad90613181565b80601f0160208091040260200160405190810160405280929190818152602001828054610ad990613181565b8015610b265780601f10610afb57610100808354040283529160200191610b26565b820191906000526020600020905b815481529060010190602001808311610b0957829003601f168201915b505050505090509a509a509a509a509a509a509a509a509a509a50509193959799509193959799565b6000610b5a826117ef565b9050919050565b60008073ffffffffffffffffffffffffffffffffffffffff168273ffffffffffffffffffffffffffffffffffffffff1603610bd45760006040517f89c62b64000000000000000000000000000000000000000000000000000000008152600401610bcb919061278d565b60405180910390fd5b600360008373ffffffffffffffffffffffffffffffffffffffff1673ffffffffffffffffffffffffffffffffffffffff168152602001908152602001600020549050919050565b606060018054610c2a90613181565b80601f0160208091040260200160405190810160405280929190818152602001828054610c5690613181565b8015610ca35780601f10610c7857610100808354040283529160200191610ca3565b820191906000526020600020905b815481529060010190602001808311610c8657829003601f168201915b5050505050905090565b610cbf610cb86118b4565b8383611ae8565b5050565b6000600889604051610cd59190613225565b90815260200160405180910390205414610d24576040517f08c379a0000000000000000000000000000000000000000000000000000000008152600401610d1b906132ae565b60405180910390fd5b6000855167ffffffffffffffff811115610d4157610d40612c28565b5b604051908082528060200260200182016040528015610d7a57816020015b610d676124e4565b815260200190600190039081610d5f5790505b50905060006040518060400160405280600281526020017f4f4b000000000000000000000000000000000000000000000000000000000000815250905060005b8751811015610f155760006040518060400160405280600281526020017f4f4b00000000000000000000000000000000000000000000000000000000000081525090508a898381518110610e1157610e106132ce565b5b60200260200101511280610e3e575089898381518110610e3457610e336132ce565b5b6020026020010151135b15610eb4576040518060400160405280600381526020017f4e4f4b000000000000000000000000000000000000000000000000000000000081525090506040518060400160405280600381526020017f4e4f4b000000000000000000000000000000000000000000000000000000000081525092505b60405180604001604052808a8481518110610ed257610ed16132ce565b5b6020026020010151815260200182815250848381518110610ef657610ef56132ce565b5b6020026020010181905250508080610f0d9061332c565b915050610dba565b50610f206006611c57565b6000610f2c6006611c6d565b9050610f383382611c7b565b60006007600083815260200190815260200160002090508b816000019081610f609190613520565b508a816001018190555089816002018190555088816003019080519060200190610f8b9291906124fe565b5087816004019081610f9d9190613520565b5086816005019081610faf9190613520565b5085816006019081610fc19190613520565b5082816008019081610fd39190613520565b5084816009019081610fe59190613520565b5060005b845181101561106f5781600701858281518110611009576110086132ce565b5b602002602001015190806001815401808255809150506001900390600052602060002090600202016000909190919091506000820151816000015560208201518160010190816110599190613520565b50505080806110679061332c565b915050610fe9565b508160088d6040516110819190613225565b9081526020016040518091039020819055507f2ffd7230e57b2b44b264b90257bef26841c935d21fed82ce0f464b15eccc3aff8c83856040516110c6939291906135f2565b60405180910390a1505050505050505050505050565b6110e7848484610521565b6110fb6110f26118b4565b85858585611d74565b50505050565b60606000806060806060806060806060600060088c6040516111239190613225565b90815260200160405180910390205403611172576040517f08c379a0000000000000000000000000000000000000000000000000000000008152600401611169906136a9565b60405180910390fd5b600060088c6040516111849190613225565b908152602001604051809103902054905060006007600083815260200190815260200160002090508060000181600101548260020154836003018460040185600501866006018760070188600801896009018980546111e290613181565b80601f016020809104026020016040519081016040528092919081815260200182805461120e90613181565b801561125b5780601f106112305761010080835404028352916020019161125b565b820191906000526020600020905b81548152906001019060200180831161123e57829003601f168201915b50505050509950868054806020026020016040519081016040528092919081815260200182805480156112ad57602002820191906000526020600020905b815481526020019060010190808311611299575b505050505096508580546112c090613181565b80601f01602080910402602001604051908101604052809291908181526020018280546112ec90613181565b80156113395780601f1061130e57610100808354040283529160200191611339565b820191906000526020600020905b81548152906001019060200180831161131c57829003601f168201915b5050505050955084805461134c90613181565b80601f016020809104026020016040519081016040528092919081815260200182805461137890613181565b80156113c55780601f1061139a576101008083540402835291602001916113c5565b820191906000526020600020905b8154815290600101906020018083116113a857829003601f168201915b505050505094508380546113d890613181565b80601f016020809104026020016040519081016040528092919081815260200182805461140490613181565b80156114515780601f1061142657610100808354040283529160200191611451565b820191906000526020600020905b81548152906001019060200180831161143457829003601f168201915b5050505050935082805480602002602001604051908101604052809291908181526020016000905b828210156115475783829060005260206000209060020201604051806040016040529081600082015481526020016001820180546114b690613181565b80601f01602080910402602001604051908101604052809291908181526020018280546114e290613181565b801561152f5780601f106115045761010080835404028352916020019161152f565b820191906000526020600020905b81548152906001019060200180831161151257829003601f168201915b50505050508152505081526020019060010190611479565b50505050925081805461155990613181565b80601f016020809104026020016040519081016040528092919081815260200182805461158590613181565b80156115d25780601f106115a7576101008083540402835291602001916115d2565b820191906000526020600020905b8154815290600101906020018083116115b557829003601f168201915b505050505091508080546115e590613181565b80601f016020809104026020016040519081016040528092919081815260200182805461161190613181565b801561165e5780601f106116335761010080835404028352916020019161165e565b820191906000526020600020905b81548152906001019060200180831161164157829003601f168201915b505050505090509b509b509b509b509b509b509b509b509b509b5050509193959799509193959799565b6060611693826117ef565b50600061169e611f25565b905060008151116116be57604051806020016040528060008152506116e9565b806116c884611f3c565b6040516020016116d99291906136c9565b6040516020818303038152906040525b915050919050565b6000600560008473ffffffffffffffffffffffffffffffffffffffff1673ffffffffffffffffffffffffffffffffffffffff16815260200190815260200160002060008373ffffffffffffffffffffffffffffffffffffffff1673ffffffffffffffffffffffffffffffffffffffff16815260200190815260200160002060009054906101000a900460ff16905092915050565b60007f01ffc9a7000000000000000000000000000000000000000000000000000000007bffffffffffffffffffffffffffffffffffffffffffffffffffffffff1916827bffffffffffffffffffffffffffffffffffffffffffffffffffffffff1916149050919050565b6000806117fb8361200a565b9050600073ffffffffffffffffffffffffffffffffffffffff168173ffffffffffffffffffffffffffffffffffffffff160361186e57826040517f7e2732890000000000000000000000000000000000000000000000000000000081526004016118659190612b97565b60405180910390fd5b80915050919050565b60006004600083815260200190815260200160002060009054906101000a900473ffffffffffffffffffffffffffffffffffffffff169050919050565b600033905090565b6118c98383836001612047565b505050565b6000806118da8461200a565b9050600073ffffffffffffffffffffffffffffffffffffffff168373ffffffffffffffffffffffffffffffffffffffff161461191c5761191b81848661220c565b5b600073ffffffffffffffffffffffffffffffffffffffff168173ffffffffffffffffffffffffffffffffffffffff16146119ad5761195e600085600080612047565b6001600360008373ffffffffffffffffffffffffffffffffffffffff1673ffffffffffffffffffffffffffffffffffffffff168152602001908152602001600020600082825403925050819055505b600073ffffffffffffffffffffffffffffffffffffffff168573ffffffffffffffffffffffffffffffffffffffff1614611a30576001600360008773ffffffffffffffffffffffffffffffffffffffff1673ffffffffffffffffffffffffffffffffffffffff168152602001908152602001600020600082825401925050819055505b846002600086815260200190815260200160002060006101000a81548173ffffffffffffffffffffffffffffffffffffffff021916908373ffffffffffffffffffffffffffffffffffffffff160217905550838573ffffffffffffffffffffffffffffffffffffffff168273ffffffffffffffffffffffffffffffffffffffff167fddf252ad1be2c89b69c2b068fc378daa952ba7f163c4a11628f55a4df523b3ef60405160405180910390a4809150509392505050565b600073ffffffffffffffffffffffffffffffffffffffff168273ffffffffffffffffffffffffffffffffffffffff1603611b5957816040517f5b08ba18000000000000000000000000000000000000000000000000000000008152600401611b50919061278d565b60405180910390fd5b80600560008573ffffffffffffffffffffffffffffffffffffffff1673ffffffffffffffffffffffffffffffffffffffff16815260200190815260200160002060008473ffffffffffffffffffffffffffffffffffffffff1673ffffffffffffffffffffffffffffffffffffffff16815260200190815260200160002060006101000a81548160ff0219169083151502179055508173ffffffffffffffffffffffffffffffffffffffff168373ffffffffffffffffffffffffffffffffffffffff167f17307eab39ab6107e8899845ad3d59bd9653f200f220920489ca2b5937696c3183604051611c4a919061261c565b60405180910390a3505050565b6001816000016000828254019250508190555050565b600081600001549050919050565b600073ffffffffffffffffffffffffffffffffffffffff168273ffffffffffffffffffffffffffffffffffffffff1603611ced5760006040517f64a0ae92000000000000000000000000000000000000000000000000000000008152600401611ce4919061278d565b60405180910390fd5b6000611cfb838360006118ce565b9050600073ffffffffffffffffffffffffffffffffffffffff168173ffffffffffffffffffffffffffffffffffffffff1614611d6f5760006040517f73c6ac6e000000000000000000000000000000000000000000000000000000008152600401611d66919061278d565b60405180910390fd5b505050565b60008373ffffffffffffffffffffffffffffffffffffffff163b1115611f1e578273ffffffffffffffffffffffffffffffffffffffff1663150b7a02868685856040518563ffffffff1660e01b8152600401611dd39493929190613742565b6020604051808303816000875af1925050508015611e0f57506040513d601f19601f82011682018060405250810190611e0c91906137a3565b60015b611e93573d8060008114611e3f576040519150601f19603f3d011682016040523d82523d6000602084013e611e44565b606091505b506000815103611e8b57836040517f64a0ae92000000000000000000000000000000000000000000000000000000008152600401611e82919061278d565b60405180910390fd5b805181602001fd5b63150b7a0260e01b7bffffffffffffffffffffffffffffffffffffffffffffffffffffffff1916817bffffffffffffffffffffffffffffffffffffffffffffffffffffffff191614611f1c57836040517f64a0ae92000000000000000000000000000000000000000000000000000000008152600401611f13919061278d565b60405180910390fd5b505b5050505050565b606060405180602001604052806000815250905090565b606060006001611f4b846122d0565b01905060008167ffffffffffffffff811115611f6a57611f69612c28565b5b6040519080825280601f01601f191660200182016040528015611f9c5781602001600182028036833780820191505090505b509050600082602001820190505b600115611fff578080600190039150507f3031323334353637383961626364656600000000000000000000000000000000600a86061a8153600a8581611ff357611ff26137d0565b5b04945060008503611faa575b819350505050919050565b60006002600083815260200190815260200160002060009054906101000a900473ffffffffffffffffffffffffffffffffffffffff169050919050565b80806120805750600073ffffffffffffffffffffffffffffffffffffffff168273ffffffffffffffffffffffffffffffffffffffff1614155b156121b4576000612090846117ef565b9050600073ffffffffffffffffffffffffffffffffffffffff168373ffffffffffffffffffffffffffffffffffffffff16141580156120fb57508273ffffffffffffffffffffffffffffffffffffffff168173ffffffffffffffffffffffffffffffffffffffff1614155b801561210e575061210c81846116f1565b155b1561215057826040517fa9fbf51f000000000000000000000000000000000000000000000000000000008152600401612147919061278d565b60405180910390fd5b81156121b257838573ffffffffffffffffffffffffffffffffffffffff168273ffffffffffffffffffffffffffffffffffffffff167f8c5be1e5ebec7d5bd14f71427d1e84f3dd0314c0f7b2291e5b200ac8c7c3b92560405160405180910390a45b505b836004600085815260200190815260200160002060006101000a81548173ffffffffffffffffffffffffffffffffffffffff021916908373ffffffffffffffffffffffffffffffffffffffff16021790555050505050565b612217838383612423565b6122cb57600073ffffffffffffffffffffffffffffffffffffffff168373ffffffffffffffffffffffffffffffffffffffff160361228c57806040517f7e2732890000000000000000000000000000000000000000000000000000000081526004016122839190612b97565b60405180910390fd5b81816040517f177e802f0000000000000000000000000000000000000000000000000000000081526004016122c29291906137ff565b60405180910390fd5b505050565b600080600090507a184f03e93ff9f4daa797ed6e38ed64bf6a1f010000000000000000831061232e577a184f03e93ff9f4daa797ed6e38ed64bf6a1f0100000000000000008381612324576123236137d0565b5b0492506040810190505b6d04ee2d6d415b85acef8100000000831061236b576d04ee2d6d415b85acef81000000008381612361576123606137d0565b5b0492506020810190505b662386f26fc10000831061239a57662386f26fc1000083816123905761238f6137d0565b5b0492506010810190505b6305f5e10083106123c3576305f5e10083816123b9576123b86137d0565b5b0492506008810190505b61271083106123e85761271083816123de576123dd6137d0565b5b0492506004810190505b6064831061240b5760648381612401576124006137d0565b5b0492506002810190505b600a831061241a576001810190505b80915050919050565b60008073ffffffffffffffffffffffffffffffffffffffff168373ffffffffffffffffffffffffffffffffffffffff16141580156124db57508273ffffffffffffffffffffffffffffffffffffffff168473ffffffffffffffffffffffffffffffffffffffff16148061249c575061249b84846116f1565b5b806124da57508273ffffffffffffffffffffffffffffffffffffffff166124c283611877565b73ffffffffffffffffffffffffffffffffffffffff16145b5b90509392505050565b604051806040016040528060008152602001606081525090565b82805482825590600052602060002090810192821561253a579160200282015b8281111561253957825182559160200191906001019061251e565b5b509050612547919061254b565b5090565b5b8082111561256457600081600090555060010161254c565b5090565b6000604051905090565b600080fd5b600080fd5b60007fffffffff0000000000000000000000000000000000000000000000000000000082169050919050565b6125b18161257c565b81146125bc57600080fd5b50565b6000813590506125ce816125a8565b92915050565b6000602082840312156125ea576125e9612572565b5b60006125f8848285016125bf565b91505092915050565b60008115159050919050565b61261681612601565b82525050565b6000602082019050612631600083018461260d565b92915050565b600081519050919050565b600082825260208201905092915050565b60005b83811015612671578082015181840152602081019050612656565b60008484015250505050565b6000601f19601f8301169050919050565b600061269982612637565b6126a38185612642565b93506126b3818560208601612653565b6126bc8161267d565b840191505092915050565b600060208201905081810360008301526126e1818461268e565b905092915050565b6000819050919050565b6126fc816126e9565b811461270757600080fd5b50565b600081359050612719816126f3565b92915050565b60006020828403121561273557612734612572565b5b60006127438482850161270a565b91505092915050565b600073ffffffffffffffffffffffffffffffffffffffff82169050919050565b60006127778261274c565b9050919050565b6127878161276c565b82525050565b60006020820190506127a2600083018461277e565b92915050565b6127b18161276c565b81146127bc57600080fd5b50565b6000813590506127ce816127a8565b92915050565b600080604083850312156127eb576127ea612572565b5b60006127f9858286016127bf565b925050602061280a8582860161270a565b9150509250929050565b60008060006060848603121561282d5761282c612572565b5b600061283b868287016127bf565b935050602061284c868287016127bf565b925050604061285d8682870161270a565b9150509250925092565b6000819050919050565b61287a81612867565b82525050565b600081519050919050565b600082825260208201905092915050565b6000819050602082019050919050565b6128b581612867565b82525050565b60006128c783836128ac565b60208301905092915050565b6000602082019050919050565b60006128eb82612880565b6128f5818561288b565b93506129008361289c565b8060005b8381101561293157815161291888826128bb565b9750612923836128d3565b925050600181019050612904565b5085935050505092915050565b600081519050919050565b600082825260208201905092915050565b6000819050602082019050919050565b600082825260208201905092915050565b600061298682612637565b612990818561296a565b93506129a0818560208601612653565b6129a98161267d565b840191505092915050565b60006040830160008301516129cc60008601826128ac565b50602083015184820360208601526129e4828261297b565b9150508091505092915050565b60006129fd83836129b4565b905092915050565b6000602082019050919050565b6000612a1d8261293e565b612a278185612949565b935083602082028501612a398561295a565b8060005b85811015612a755784840389528151612a5685826129f1565b9450612a6183612a05565b925060208a01995050600181019050612a3d565b50829750879550505050505092915050565b6000610140820190508181036000830152612aa2818d61268e565b9050612ab1602083018c612871565b612abe604083018b612871565b8181036060830152612ad0818a6128e0565b90508181036080830152612ae4818961268e565b905081810360a0830152612af8818861268e565b905081810360c0830152612b0c818761268e565b905081810360e0830152612b208186612a12565b9050818103610100830152612b35818561268e565b9050818103610120830152612b4a818461268e565b90509b9a5050505050505050505050565b600060208284031215612b7157612b70612572565b5b6000612b7f848285016127bf565b91505092915050565b612b91816126e9565b82525050565b6000602082019050612bac6000830184612b88565b92915050565b612bbb81612601565b8114612bc657600080fd5b50565b600081359050612bd881612bb2565b92915050565b60008060408385031215612bf557612bf4612572565b5b6000612c03858286016127bf565b9250506020612c1485828601612bc9565b9150509250929050565b600080fd5b600080fd5b7f4e487b7100000000000000000000000000000000000000000000000000000000600052604160045260246000fd5b612c608261267d565b810181811067ffffffffffffffff82111715612c7f57612c7e612c28565b5b80604052505050565b6000612c92612568565b9050612c9e8282612c57565b919050565b600067ffffffffffffffff821115612cbe57612cbd612c28565b5b612cc78261267d565b9050602081019050919050565b82818337600083830152505050565b6000612cf6612cf184612ca3565b612c88565b905082815260208101848484011115612d1257612d11612c23565b5b612d1d848285612cd4565b509392505050565b600082601f830112612d3a57612d39612c1e565b5b8135612d4a848260208601612ce3565b91505092915050565b612d5c81612867565b8114612d6757600080fd5b50565b600081359050612d7981612d53565b92915050565b600067ffffffffffffffff821115612d9a57612d99612c28565b5b602082029050602081019050919050565b600080fd5b6000612dc3612dbe84612d7f565b612c88565b90508083825260208201905060208402830185811115612de657612de5612dab565b5b835b81811015612e0f5780612dfb8882612d6a565b845260208401935050602081019050612de8565b5050509392505050565b600082601f830112612e2e57612e2d612c1e565b5b8135612e3e848260208601612db0565b91505092915050565b600080600080600080600080610100898b031215612e6857612e67612572565b5b600089013567ffffffffffffffff811115612e8657612e85612577565b5b612e928b828c01612d25565b9850506020612ea38b828c01612d6a565b9750506040612eb48b828c01612d6a565b965050606089013567ffffffffffffffff811115612ed557612ed4612577565b5b612ee18b828c01612e19565b955050608089013567ffffffffffffffff811115612f0257612f01612577565b5b612f0e8b828c01612d25565b94505060a089013567ffffffffffffffff811115612f2f57612f2e612577565b5b612f3b8b828c01612d25565b93505060c089013567ffffffffffffffff811115612f5c57612f5b612577565b5b612f688b828c01612d25565b92505060e089013567ffffffffffffffff811115612f8957612f88612577565b5b612f958b828c01612d25565b9150509295985092959890939650565b600067ffffffffffffffff821115612fc057612fbf612c28565b5b612fc98261267d565b9050602081019050919050565b6000612fe9612fe484612fa5565b612c88565b90508281526020810184848401111561300557613004612c23565b5b613010848285612cd4565b509392505050565b600082601f83011261302d5761302c612c1e565b5b813561303d848260208601612fd6565b91505092915050565b600080600080608085870312156130605761305f612572565b5b600061306e878288016127bf565b945050602061307f878288016127bf565b93505060406130908782880161270a565b925050606085013567ffffffffffffffff8111156130b1576130b0612577565b5b6130bd87828801613018565b91505092959194509250565b6000602082840312156130df576130de612572565b5b600082013567ffffffffffffffff8111156130fd576130fc612577565b5b61310984828501612d25565b91505092915050565b6000806040838503121561312957613128612572565b5b6000613137858286016127bf565b9250506020613148858286016127bf565b9150509250929050565b7f4e487b7100000000000000000000000000000000000000000000000000000000600052602260045260246000fd5b6000600282049050600182168061319957607f821691505b6020821081036131ac576131ab613152565b5b50919050565b60006060820190506131c7600083018661277e565b6131d46020830185612b88565b6131e1604083018461277e565b949350505050565b600081905092915050565b60006131ff82612637565b61320981856131e9565b9350613219818560208601612653565b80840191505092915050565b600061323182846131f4565b915081905092915050565b7f42617463682077697468207468697320494420616c726561647920657869737460008201527f7300000000000000000000000000000000000000000000000000000000000000602082015250565b6000613298602183612642565b91506132a38261323c565b604082019050919050565b600060208201905081810360008301526132c78161328b565b9050919050565b7f4e487b7100000000000000000000000000000000000000000000000000000000600052603260045260246000fd5b7f4e487b7100000000000000000000000000000000000000000000000000000000600052601160045260246000fd5b6000613337826126e9565b91507fffffffffffffffffffffffffffffffffffffffffffffffffffffffffffffffff8203613369576133686132fd565b5b600182019050919050565b60008190508160005260206000209050919050565b60006020601f8301049050919050565b600082821b905092915050565b6000600883026133d67fffffffffffffffffffffffffffffffffffffffffffffffffffffffffffffffff82613399565b6133e08683613399565b95508019841693508086168417925050509392505050565b6000819050919050565b600061341d613418613413846126e9565b6133f8565b6126e9565b9050919050565b6000819050919050565b61343783613402565b61344b61344382613424565b8484546133a6565b825550505050565b600090565b613460613453565b61346b81848461342e565b505050565b5b8181101561348f57613484600082613458565b600181019050613471565b5050565b601f8211156134d4576134a581613374565b6134ae84613389565b810160208510156134bd578190505b6134d16134c985613389565b830182613470565b50505b505050565b600082821c905092915050565b60006134f7600019846008026134d9565b1980831691505092915050565b600061351083836134e6565b9150826002028217905092915050565b61352982612637565b67ffffffffffffffff81111561354257613541612c28565b5b61354c8254613181565b613557828285613493565b600060209050601f83116001811461358a5760008415613578578287015190505b6135828582613504565b8655506135ea565b601f19841661359886613374565b60005b828110156135c05784890151825560018201915060208501945060208101905061359b565b868310156135dd57848901516135d9601f8916826134e6565b8355505b6001600288020188555050505b505050505050565b6000606082019050818103600083015261360c818661268e565b905061361b6020830185612b88565b818103604083015261362d818461268e565b9050949350505050565b7f546573742062617463682077697468207468697320494420646f6573206e6f7460008201527f2065786973740000000000000000000000000000000000000000000000000000602082015250565b6000613693602683612642565b915061369e82613637565b604082019050919050565b600060208201905081810360008301526136c281613686565b9050919050565b60006136d582856131f4565b91506136e182846131f4565b91508190509392505050565b600081519050919050565b600082825260208201905092915050565b6000613714826136ed565b61371e81856136f8565b935061372e818560208601612653565b6137378161267d565b840191505092915050565b6000608082019050613757600083018761277e565b613764602083018661277e565b6137716040830185612b88565b81810360608301526137838184613709565b905095945050505050565b60008151905061379d816125a8565b92915050565b6000602082840312156137b9576137b8612572565b5b60006137c78482850161378e565b91505092915050565b7f4e487b7100000000000000000000000000000000000000000000000000000000600052601260045260246000fd5b6000604082019050613814600083018561277e565b6138216020830184612b88565b939250505056fea2646970667358221220880143e860600f55b4151c87940a81f3ef86971d7ae0cdbf8eebe8345e80541164736f6c63430008140033",
  "linkReferences": {},
  "deployedLinkReferences": {}
}