{
  "_format": "hh-sol-artifact-1",
  "contractName": "QualityTestContract",
  "sourceName": "contracts/QualityTestContract.sol",
  "abi": [
    {
      "anonymous": false,
      "inputs": [
        {
          "indexed": false,
          "internalType": "string",
          "name": "id",
          "type": "string"
        },
        {
          "indexed": false,
          "internalType": "string",
          "name": "finalResult",
          "type": "string"
        }
      ],
      "name": "QualityTestBatchCreated",
      "type": "event"
    },
    {
      "inputs": [
        {
          "internalType": "string",
          "name": "id",
          "type": "string"
        },
        {
          "internalType": "int256",
          "name": "minLimit",
          "type": "int256"
        },
        {
          "internalType": "int256",
          "name": "maxLimit",
          "type": "int256"
        },
        {
          "internalType": "int256[]",
          "name": "values",
          "type": "int256[]"
        },
        {
          "internalType": "string",
          "name": "productionOrder",
          "type": "string"
        },
        {
          "internalType": "string",
          "name": "testDate",
          "type": "string"
        },
        {
          "internalType": "string",
          "name": "testDescription",
          "type": "string"
        }
      ],
      "name": "performBatchQualityTest",
      "outputs": [],
      "stateMutability": "nonpayable",
      "type": "function"
    },
    {
      "inputs": [
        {
          "internalType": "string",
          "name": "id",
          "type": "string"
        }
      ],
      "name": "queryQualityTestBatch",
      "outputs": [
        {
          "internalType": "string",
          "name": "",
          "type": "string"
        },
        {
          "internalType": "int256",
          "name": "",
          "type": "int256"
        },
        {
          "internalType": "int256",
          "name": "",
          "type": "int256"
        },
        {
          "internalType": "int256[]",
          "name": "",
          "type": "int256[]"
        },
        {
          "internalType": "string",
          "name": "",
          "type": "string"
        },
        {
          "internalType": "string",
          "name": "",
          "type": "string"
        },
        {
          "internalType": "string",
          "name": "",
          "type": "string"
        },
        {
          "components": [
            {
              "internalType": "int256",
              "name": "value",
              "type": "int256"
            },
            {
              "internalType": "string",
              "name": "result",
              "type": "string"
            }
          ],
          "internalType": "struct QualityTestContract.SampleResult[]",
          "name": "",
          "type": "tuple[]"
        },
        {
          "internalType": "string",
          "name": "",
          "type": "string"
        }
      ],
      "stateMutability": "view",
      "type": "function"
    }
  ],
  "bytecode": "0x608060405234801561001057600080fd5b50611648806100206000396000f3fe608060405234801561001057600080fd5b50600436106100365760003560e01c8063c11c4e231461003b578063c6b20dd814610073575b600080fd5b61005560048036038101906100509190610b0e565b61008f565b60405161006a99989796959493929190610df6565b60405180910390f35b61008d60048036038101906100889190610fa8565b61055a565b005b60606000806060806060806060806000808b6040516100ae9190611112565b9081526020016040518091039020905060008160000180546100cf90611158565b905003610111576040517f08c379a0000000000000000000000000000000000000000000000000000000008152600401610108906111fb565b60405180910390fd5b806000018160010154826002015483600301846004018560050186600601876007018860080188805461014390611158565b80601f016020809104026020016040519081016040528092919081815260200182805461016f90611158565b80156101bc5780601f10610191576101008083540402835291602001916101bc565b820191906000526020600020905b81548152906001019060200180831161019f57829003601f168201915b505050505098508580548060200260200160405190810160405280929190818152602001828054801561020e57602002820191906000526020600020905b8154815260200190600101908083116101fa575b5050505050955084805461022190611158565b80601f016020809104026020016040519081016040528092919081815260200182805461024d90611158565b801561029a5780601f1061026f5761010080835404028352916020019161029a565b820191906000526020600020905b81548152906001019060200180831161027d57829003601f168201915b505050505094508380546102ad90611158565b80601f01602080910402602001604051908101604052809291908181526020018280546102d990611158565b80156103265780601f106102fb57610100808354040283529160200191610326565b820191906000526020600020905b81548152906001019060200180831161030957829003601f168201915b5050505050935082805461033990611158565b80601f016020809104026020016040519081016040528092919081815260200182805461036590611158565b80156103b25780601f10610387576101008083540402835291602001916103b2565b820191906000526020600020905b81548152906001019060200180831161039557829003601f168201915b5050505050925081805480602002602001604051908101604052809291908181526020016000905b828210156104a857838290600052602060002090600202016040518060400160405290816000820154815260200160018201805461041790611158565b80601f016020809104026020016040519081016040528092919081815260200182805461044390611158565b80156104905780601f1061046557610100808354040283529160200191610490565b820191906000526020600020905b81548152906001019060200180831161047357829003601f168201915b505050505081525050815260200190600101906103da565b5050505091508080546104ba90611158565b80601f01602080910402602001604051908101604052809291908181526020018280546104e690611158565b80156105335780601f1061050857610100808354040283529160200191610533565b820191906000526020600020905b81548152906001019060200180831161051657829003601f168201915b50505050509050995099509950995099509950995099509950509193959799909294969850565b6000808860405161056b9190611112565b9081526020016040518091039020600001805461058790611158565b9050146105c9576040517f08c379a00000000000000000000000000000000000000000000000000000000081526004016105c09061128d565b60405180910390fd5b6000845167ffffffffffffffff8111156105e6576105e56109e3565b5b60405190808252806020026020018201604052801561061f57816020015b61060c610930565b8152602001906001900390816106045790505b50905060006040518060400160405280600281526020017f4f4b000000000000000000000000000000000000000000000000000000000000815250905060005b86518110156107ba5760006040518060400160405280600281526020017f4f4b0000000000000000000000000000000000000000000000000000000000008152509050898883815181106106b6576106b56112ad565b5b602002602001015112806106e35750888883815181106106d9576106d86112ad565b5b6020026020010151135b15610759576040518060400160405280600381526020017f4e4f4b000000000000000000000000000000000000000000000000000000000081525090506040518060400160405280600381526020017f4e4f4b000000000000000000000000000000000000000000000000000000000081525092505b6040518060400160405280898481518110610777576107766112ad565b5b602002602001015181526020018281525084838151811061079b5761079a6112ad565b5b60200260200101819052505080806107b290611315565b91505061065f565b506000808a6040516107cc9190611112565b90815260200160405180910390209050898160000190816107ed9190611509565b508881600101819055508781600201819055508681600301908051906020019061081892919061094a565b508581600401908161082a9190611509565b508481600501908161083c9190611509565b508381600601908161084e9190611509565b50818160080190816108609190611509565b5060005b83518110156108ea5781600701848281518110610884576108836112ad565b5b602002602001015190806001815401808255809150506001900390600052602060002090600202016000909190919091506000820151816000015560208201518160010190816108d49190611509565b50505080806108e290611315565b915050610864565b507f73f13c3c8e49d923017340abe0fbaeb0e7dca4e9c565ae6417b193cb02bb11f98a8360405161091c9291906115db565b60405180910390a150505050505050505050565b604051806040016040528060008152602001606081525090565b828054828255906000526020600020908101928215610986579160200282015b8281111561098557825182559160200191906001019061096a565b5b5090506109939190610997565b5090565b5b808211156109b0576000816000905550600101610998565b5090565b6000604051905090565b600080fd5b600080fd5b600080fd5b600080fd5b6000601f19601f8301169050919050565b7f4e487b7100000000000000000000000000000000000000000000000000000000600052604160045260246000fd5b610a1b826109d2565b810181811067ffffffffffffffff82111715610a3a57610a396109e3565b5b80604052505050565b6000610a4d6109b4565b9050610a598282610a12565b919050565b600067ffffffffffffffff821115610a7957610a786109e3565b5b610a82826109d2565b9050602081019050919050565b82818337600083830152505050565b6000610ab1610aac84610a5e565b610a43565b905082815260208101848484011115610acd57610acc6109cd565b5b610ad8848285610a8f565b509392505050565b600082601f830112610af557610af46109c8565b5b8135610b05848260208601610a9e565b91505092915050565b600060208284031215610b2457610b236109be565b5b600082013567ffffffffffffffff811115610b4257610b416109c3565b5b610b4e84828501610ae0565b91505092915050565b600081519050919050565b600082825260208201905092915050565b60005b83811015610b91578082015181840152602081019050610b76565b60008484015250505050565b6000610ba882610b57565b610bb28185610b62565b9350610bc2818560208601610b73565b610bcb816109d2565b840191505092915050565b6000819050919050565b610be981610bd6565b82525050565b600081519050919050565b600082825260208201905092915050565b6000819050602082019050919050565b610c2481610bd6565b82525050565b6000610c368383610c1b565b60208301905092915050565b6000602082019050919050565b6000610c5a82610bef565b610c648185610bfa565b9350610c6f83610c0b565b8060005b83811015610ca0578151610c878882610c2a565b9750610c9283610c42565b925050600181019050610c73565b5085935050505092915050565b600081519050919050565b600082825260208201905092915050565b6000819050602082019050919050565b600082825260208201905092915050565b6000610cf582610b57565b610cff8185610cd9565b9350610d0f818560208601610b73565b610d18816109d2565b840191505092915050565b6000604083016000830151610d3b6000860182610c1b565b5060208301518482036020860152610d538282610cea565b9150508091505092915050565b6000610d6c8383610d23565b905092915050565b6000602082019050919050565b6000610d8c82610cad565b610d968185610cb8565b935083602082028501610da885610cc9565b8060005b85811015610de45784840389528151610dc58582610d60565b9450610dd083610d74565b925060208a01995050600181019050610dac565b50829750879550505050505092915050565b6000610120820190508181036000830152610e11818c610b9d565b9050610e20602083018b610be0565b610e2d604083018a610be0565b8181036060830152610e3f8189610c4f565b90508181036080830152610e538188610b9d565b905081810360a0830152610e678187610b9d565b905081810360c0830152610e7b8186610b9d565b905081810360e0830152610e8f8185610d81565b9050818103610100830152610ea48184610b9d565b90509a9950505050505050505050565b610ebd81610bd6565b8114610ec857600080fd5b50565b600081359050610eda81610eb4565b92915050565b600067ffffffffffffffff821115610efb57610efa6109e3565b5b602082029050602081019050919050565b600080fd5b6000610f24610f1f84610ee0565b610a43565b90508083825260208201905060208402830185811115610f4757610f46610f0c565b5b835b81811015610f705780610f5c8882610ecb565b845260208401935050602081019050610f49565b5050509392505050565b600082601f830112610f8f57610f8e6109c8565b5b8135610f9f848260208601610f11565b91505092915050565b600080600080600080600060e0888a031215610fc757610fc66109be565b5b600088013567ffffffffffffffff811115610fe557610fe46109c3565b5b610ff18a828b01610ae0565b97505060206110028a828b01610ecb565b96505060406110138a828b01610ecb565b955050606088013567ffffffffffffffff811115611034576110336109c3565b5b6110408a828b01610f7a565b945050608088013567ffffffffffffffff811115611061576110606109c3565b5b61106d8a828b01610ae0565b93505060a088013567ffffffffffffffff81111561108e5761108d6109c3565b5b61109a8a828b01610ae0565b92505060c088013567ffffffffffffffff8111156110bb576110ba6109c3565b5b6110c78a828b01610ae0565b91505092959891949750929550565b600081905092915050565b60006110ec82610b57565b6110f681856110d6565b9350611106818560208601610b73565b80840191505092915050565b600061111e82846110e1565b915081905092915050565b7f4e487b7100000000000000000000000000000000000000000000000000000000600052602260045260246000fd5b6000600282049050600182168061117057607f821691505b60208210810361118357611182611129565b5b50919050565b7f546573742062617463682077697468207468697320494420646f6573206e6f7460008201527f2065786973740000000000000000000000000000000000000000000000000000602082015250565b60006111e5602683610b62565b91506111f082611189565b604082019050919050565b60006020820190508181036000830152611214816111d8565b9050919050565b7f42617463682077697468207468697320494420616c726561647920657869737460008201527f7300000000000000000000000000000000000000000000000000000000000000602082015250565b6000611277602183610b62565b91506112828261121b565b604082019050919050565b600060208201905081810360008301526112a68161126a565b9050919050565b7f4e487b7100000000000000000000000000000000000000000000000000000000600052603260045260246000fd5b7f4e487b7100000000000000000000000000000000000000000000000000000000600052601160045260246000fd5b6000819050919050565b60006113208261130b565b91507fffffffffffffffffffffffffffffffffffffffffffffffffffffffffffffffff8203611352576113516112dc565b5b600182019050919050565b60008190508160005260206000209050919050565b60006020601f8301049050919050565b600082821b905092915050565b6000600883026113bf7fffffffffffffffffffffffffffffffffffffffffffffffffffffffffffffffff82611382565b6113c98683611382565b95508019841693508086168417925050509392505050565b6000819050919050565b60006114066114016113fc8461130b565b6113e1565b61130b565b9050919050565b6000819050919050565b611420836113eb565b61143461142c8261140d565b84845461138f565b825550505050565b600090565b61144961143c565b611454818484611417565b505050565b5b818110156114785761146d600082611441565b60018101905061145a565b5050565b601f8211156114bd5761148e8161135d565b61149784611372565b810160208510156114a6578190505b6114ba6114b285611372565b830182611459565b50505b505050565b600082821c905092915050565b60006114e0600019846008026114c2565b1980831691505092915050565b60006114f983836114cf565b9150826002028217905092915050565b61151282610b57565b67ffffffffffffffff81111561152b5761152a6109e3565b5b6115358254611158565b61154082828561147c565b600060209050601f8311600181146115735760008415611561578287015190505b61156b85826114ed565b8655506115d3565b601f1984166115818661135d565b60005b828110156115a957848901518255600182019150602085019450602081019050611584565b868310156115c657848901516115c2601f8916826114cf565b8355505b6001600288020188555050505b505050505050565b600060408201905081810360008301526115f58185610b9d565b905081810360208301526116098184610b9d565b9050939250505056fea2646970667358221220b8eed6c948d49f0faa41cfd4c18459ae373d54066d8af95c5116c8668a46ca6064736f6c63430008140033",
  "linkReferences": {},
  "deployedLinkReferences": {}
}